{
  "contractName": "IncentiveToken",
  "abi": [
    {
      "inputs": [],
      "stateMutability": "nonpayable",
      "type": "constructor"
    },
    {
      "anonymous": false,
      "inputs": [
        {
          "indexed": false,
          "internalType": "address",
          "name": "_owner",
          "type": "address"
        },
        {
          "indexed": false,
          "internalType": "address",
          "name": "_spender",
          "type": "address"
        },
        {
          "indexed": false,
          "internalType": "uint256",
          "name": "_value",
          "type": "uint256"
        }
      ],
      "name": "Approve",
      "type": "event"
    },
    {
      "anonymous": false,
      "inputs": [
        {
          "indexed": false,
          "internalType": "address",
          "name": "_from",
          "type": "address"
        },
        {
          "indexed": false,
          "internalType": "address",
          "name": "_to",
          "type": "address"
        },
        {
          "indexed": false,
          "internalType": "uint256",
          "name": "_value",
          "type": "uint256"
        }
      ],
      "name": "Transfer",
      "type": "event"
    },
    {
      "inputs": [
        {
          "internalType": "address",
          "name": "",
          "type": "address"
        },
        {
          "internalType": "address",
          "name": "",
          "type": "address"
        }
      ],
      "name": "allowances",
      "outputs": [
        {
          "internalType": "uint256",
          "name": "",
          "type": "uint256"
        }
      ],
      "stateMutability": "view",
      "type": "function"
    },
    {
      "inputs": [
        {
          "internalType": "address",
          "name": "",
          "type": "address"
        }
      ],
      "name": "balances",
      "outputs": [
        {
          "internalType": "uint256",
          "name": "",
          "type": "uint256"
        }
      ],
      "stateMutability": "view",
      "type": "function"
    },
    {
      "inputs": [],
      "name": "decimal",
      "outputs": [
        {
          "internalType": "uint256",
          "name": "",
          "type": "uint256"
        }
      ],
      "stateMutability": "view",
      "type": "function"
    },
    {
      "inputs": [],
      "name": "name",
      "outputs": [
        {
          "internalType": "string",
          "name": "",
          "type": "string"
        }
      ],
      "stateMutability": "view",
      "type": "function"
    },
    {
      "inputs": [],
      "name": "symbol",
      "outputs": [
        {
          "internalType": "string",
          "name": "",
          "type": "string"
        }
      ],
      "stateMutability": "view",
      "type": "function"
    },
    {
      "inputs": [],
      "name": "totalSupply",
      "outputs": [
        {
          "internalType": "uint256",
          "name": "",
          "type": "uint256"
        }
      ],
      "stateMutability": "view",
      "type": "function"
    },
    {
      "inputs": [
        {
          "internalType": "address",
          "name": "_to",
          "type": "address"
        },
        {
          "internalType": "uint256",
          "name": "_value",
          "type": "uint256"
        }
      ],
      "name": "transfer",
      "outputs": [
        {
          "internalType": "bool",
          "name": "success",
          "type": "bool"
        }
      ],
      "stateMutability": "nonpayable",
      "type": "function"
    },
    {
      "inputs": [
        {
          "internalType": "address",
          "name": "_spender",
          "type": "address"
        },
        {
          "internalType": "uint256",
          "name": "_value",
          "type": "uint256"
        }
      ],
      "name": "approve",
      "outputs": [
        {
          "internalType": "bool",
          "name": "success",
          "type": "bool"
        }
      ],
      "stateMutability": "nonpayable",
      "type": "function"
    },
    {
      "inputs": [
        {
          "internalType": "address",
          "name": "_from",
          "type": "address"
        },
        {
          "internalType": "address",
          "name": "_to",
          "type": "address"
        },
        {
          "internalType": "uint256",
          "name": "_value",
          "type": "uint256"
        }
      ],
      "name": "transferFrom",
      "outputs": [
        {
          "internalType": "bool",
          "name": "success",
          "type": "bool"
        }
      ],
      "stateMutability": "nonpayable",
      "type": "function"
    }
  ],
  "bytecode": "0x60c0604052600b60809081527f44554d4d5920546f6b656e00000000000000000000000000000000000000000060a05260009061003c9082610186565b5060408051808201909152600381527f494e430000000000000000000000000000000000000000000000000000000000602082015260019061007e9082610186565b5067016345785d8a0000600255601260035534801561009c57600080fd5b506002543360009081526004602052604090205561024c565b7f4e487b7100000000000000000000000000000000000000000000000000000000600052604160045260246000fd5b6002810460018216806100f857607f821691505b602082108103610131577f4e487b7100000000000000000000000000000000000000000000000000000000600052602260045260246000fd5b50919050565b601f821115610181576000818152602081206020601f8601048101602086101561015e5750805b6020601f860104820191505b8181101561017d5782815560010161016a565b5050505b505050565b815167ffffffffffffffff8111156101a0576101a06100b5565b6101b4816101ae84546100e4565b84610137565b602080601f8311600181146101ed57600084156101d15750858301515b60028086026008870290910a600019041982161786555061017d565b600085815260208120601f198616915b8281101561021c578886015182559484019460019091019084016101fd565b508582101561023c57878501516008601f88160260020a60001904191681555b5050505050600202600101905550565b6106fd8061025b6000396000f3fe608060405234801561001057600080fd5b50600436106100b0576000357c01000000000000000000000000000000000000000000000000000000009004806327e235e31161008357806327e235e31461012057806355b6ed5c1461014057806376809ce31461016b57806395d89b4114610174578063a9059cbb1461017c57600080fd5b806306fdde03146100b5578063095ea7b3146100d357806318160ddd146100f657806323b872dd1461010d575b600080fd5b6100bd61018f565b6040516100ca91906104fa565b60405180910390f35b6100e66100e1366004610564565b61021d565b60405190151581526020016100ca565b6100ff60025481565b6040519081526020016100ca565b6100e661011b36600461058e565b61028e565b6100ff61012e3660046105ca565b60046020526000908152604090205481565b6100ff61014e3660046105ec565b600560209081526000928352604080842090915290825290205481565b6100ff60035481565b6100bd6103ca565b6100e661018a366004610564565b6103d7565b6000805461019c9061061f565b80601f01602080910402602001604051908101604052809291908181526020018280546101c89061061f565b80156102155780601f106101ea57610100808354040283529160200191610215565b820191906000526020600020905b8154815290600101906020018083116101f857829003601f168201915b505050505081565b336000818152600560209081526040808320600160a060020a0387168085529083528184208690558151948552918401919091528201839052907f6e11fb1b7f119e3f2fa29896ef5fdf8b8a2d0d4df6fe90ba8668e7d8b2ffa25e9060600160405180910390a15060015b92915050565b600160a060020a0383166000908152600460205260408120548211156102b357600080fd5b600160a060020a03841660009081526005602090815260408083203384529091529020548211156102e357600080fd5b600160a060020a0384166000908152600460205260408120805484929061030b9084906106a1565b9091555050600160a060020a038316600090815260046020526040812080548492906103389084906106b4565b9091555050600160a060020a0384166000908152600560209081526040808320338452909152812080548492906103709084906106a1565b909155505060408051600160a060020a038087168252851660208201529081018390527fddf252ad1be2c89b69c2b068fc378daa952ba7f163c4a11628f55a4df523b3ef9060600160405180910390a15060019392505050565b6001805461019c9061061f565b336000908152600460205260408120548290811115610456576040517f08c379a000000000000000000000000000000000000000000000000000000000815260206004820152601560248201527f496e73756666696369656e742062616c616e63652e0000000000000000000000604482015260640160405180910390fd5b33600090815260046020526040812080548592906104759084906106a1565b9091555050600160a060020a038416600090815260046020526040812080548592906104a29084906106b4565b909155505060408051338152600160a060020a03861660208201529081018490527fddf252ad1be2c89b69c2b068fc378daa952ba7f163c4a11628f55a4df523b3ef9060600160405180910390a15060019392505050565b600060208083528351808285015260005b818110156105275785810183015185820160400152820161050b565b506000604082860101526040601f19601f8301168501019250505092915050565b8035600160a060020a038116811461055f57600080fd5b919050565b6000806040838503121561057757600080fd5b61058083610548565b946020939093013593505050565b6000806000606084860312156105a357600080fd5b6105ac84610548565b92506105ba60208501610548565b9150604084013590509250925092565b6000602082840312156105dc57600080fd5b6105e582610548565b9392505050565b600080604083850312156105ff57600080fd5b61060883610548565b915061061660208401610548565b90509250929050565b60028104600182168061063357607f821691505b60208210810361066c577f4e487b7100000000000000000000000000000000000000000000000000000000600052602260045260246000fd5b50919050565b7f4e487b7100000000000000000000000000000000000000000000000000000000600052601160045260246000fd5b8181038181111561028857610288610672565b808201808211156102885761028861067256fea26469706673582212200ab6cc57159b9776872e01a364f8fe03f18d03556cb1ed85c1c7d696235fb5a764736f6c63430008150033",
  "immutableReferences": {},
  "source": "// SPDX-License-Identifier: SEE LICENSE IN LICENSE\npragma solidity >=0.4.22 <0.9.0;\n\ncontract IncentiveToken {\n    string public name = \"DUMMY Token\";\n    string public symbol = \"INC\";\n    uint256 public totalSupply = 100000000000000000;\n    uint256 public decimal = 18;\n\n    event Transfer(address _from, address _to, uint256 _value);\n    event Approve(address _owner, address _spender, uint256 _value);\n\n    mapping(address => uint256) public balances;\n    mapping (address => mapping(address => uint256)) public allowances;\n\n    constructor(){\n        balances[msg.sender] = totalSupply;\n    }\n\n\n    function transfer(address _to, uint256 _value) public TransferGuard(_value) returns(bool success)  {\n        balances[msg.sender] -= _value;\n        balances[_to] += _value;\n        emit Transfer(msg.sender, _to, _value);\n        return true;\n    }\n\n    modifier TransferGuard (uint256 _value){\n        require(balances[msg.sender] >= _value, \"Insufficient balance.\");\n        _;\n    }\n\n    function approve(address _spender, uint256 _value) public returns (bool success) {\n        allowances[msg.sender][_spender] = _value;\n        emit Approve(msg.sender, _spender, _value);\n        return true;\n    }\n\n    function transferFrom(address _from, address _to, uint256 _value) public returns (bool success){\n        require((_value <= balances[_from]));\n        require(_value <= allowances[_from][msg.sender]);\n        balances[_from] -= _value;\n        balances[_to] += _value;\n        allowances[_from][msg.sender] -= _value;\n        emit Transfer(_from, _to, _value);\n        return true;\n    }\n}",
  "sourcePath": "/Users/admin/Projects/blockchain/council/staking_dapp/src/contracts/IncentiveToken.sol",
  "compiler": {
    "name": "solc",
    "version": "0.8.21+commit.d9974bed.Emscripten.clang"
  },
  "schemaVersion": "3.4.16",
  "updatedAt": "2023-09-15T10:57:05.749Z",
  "devdoc": {
    "kind": "dev",
    "methods": {},
    "version": 1
  },
  "userdoc": {
    "kind": "user",
    "methods": {},
    "version": 1
  }
}