{
  "contractName": "Money",
  "abi": [
    {
      "anonymous": false,
      "inputs": [
        {
          "indexed": false,
          "internalType": "uint256",
          "name": "amount",
          "type": "uint256"
        }
      ],
      "name": "depositCompplete",
      "type": "event"
    },
    {
      "anonymous": false,
      "inputs": [
        {
          "indexed": false,
          "internalType": "uint256",
          "name": "amount",
          "type": "uint256"
        }
      ],
      "name": "withdrawalComplete",
      "type": "event"
    },
    {
      "inputs": [
        {
          "internalType": "uint256",
          "name": "amount",
          "type": "uint256"
        }
      ],
      "name": "Deposit",
      "outputs": [],
      "stateMutability": "nonpayable",
      "type": "function"
    },
    {
      "inputs": [
        {
          "internalType": "uint256",
          "name": "amount",
          "type": "uint256"
        }
      ],
      "name": "Withdraw",
      "outputs": [],
      "stateMutability": "nonpayable",
      "type": "function"
    },
    {
      "inputs": [],
      "name": "Balance",
      "outputs": [
        {
          "internalType": "uint256",
          "name": "",
          "type": "uint256"
        }
      ],
      "stateMutability": "view",
      "type": "function"
    }
  ],
  "bytecode": "0x60806040526000805534801561001457600080fd5b50610324806100246000396000f3fe608060405234801561001057600080fd5b506004361061005d577c010000000000000000000000000000000000000000000000000000000060003504630ef6788781146100625780634d6ce1e5146100775780635b6b431d1461008c575b600080fd5b60005460405190815260200160405180910390f35b61008a61008536600461027a565b61009f565b005b61008a61009a36600461027a565b61015d565b806000811161010f576040517f08c379a000000000000000000000000000000000000000000000000000000000815260206004820152600f60248201527f496e76616c696420616d6f756e742e000000000000000000000000000000000060448201526064015b60405180910390fd5b8160008082825461012091906102c2565b90915550506040518281527f9068a3e76116501cb9640db685923d8e9d801d6fa33edcc83e390d8fb4c607a1906020015b60405180910390a15050565b80600081116101c8576040517f08c379a000000000000000000000000000000000000000000000000000000000815260206004820152600f60248201527f496e76616c696420616d6f756e742e00000000000000000000000000000000006044820152606401610106565b600054811115610234576040517f08c379a000000000000000000000000000000000000000000000000000000000815260206004820152601560248201527f496e73756666696369656e742062616c616e63652e00000000000000000000006044820152606401610106565b8160008082825461024591906102db565b90915550506040518281527fb688685b43df87beaf52a34adaa8a32f2d022c3e5818ee2aa0bc88f3a35acac590602001610151565b60006020828403121561028c57600080fd5b5035919050565b7f4e487b7100000000000000000000000000000000000000000000000000000000600052601160045260246000fd5b808201808211156102d5576102d5610293565b92915050565b818103818111156102d5576102d561029356fea2646970667358221220e8d7fe068da360ef7ca76b58b7b22990e781af61aa3c4a77f0fe53bdd9d387c264736f6c63430008150033",
  "immutableReferences": {},
  "source": "// SPDX-License-Identifier: SEE LICENSE IN LICENSE\npragma solidity >= 0.8.7 <= 0.9;\n//pragma solidity >=0.4.22 <0.9.0; \n\ncontract Money {\n    uint256 balance = 0;\n\n\n    modifier validateDeposit(uint256 amount) {\n        require(amount > 0, \"Invalid amount.\");\n        _;\n    }\n\n    modifier validateWithdrawal(uint256 amount) {\n        require(amount > 0, \"Invalid amount.\");\n        require(amount <= balance, \"Insufficient balance.\");\n        _;\n    }\n\n    event depositCompplete(uint256 amount);\n    event withdrawalComplete(uint256 amount);\n\n    function Deposit(uint256 amount) external validateDeposit(amount) {\n        balance += amount;\n        emit depositCompplete(amount);\n    }\n\n    function Withdraw(uint256 amount) external validateWithdrawal(amount) {\n        balance -= amount;\n        emit withdrawalComplete(amount);\n    }\n\n    function Balance() view external returns (uint) {\n        return balance;\n    }\n}",
  "sourcePath": "/Users/admin/Projects/blockchain/council/staking_dapp/src/contracts/Money.sol",
  "compiler": {
    "name": "solc",
    "version": "0.8.21+commit.d9974bed.Emscripten.clang"
  },
  "schemaVersion": "3.4.16",
  "updatedAt": "2023-09-15T10:57:05.751Z",
  "devdoc": {
    "kind": "dev",
    "methods": {},
    "version": 1
  },
  "userdoc": {
    "kind": "user",
    "methods": {},
    "version": 1
  }
}