{
  "contractName": "Money",
  "abi": [
    {
      "anonymous": false,
      "inputs": [
        {
          "indexed": false,
          "internalType": "uint256",
          "name": "amount",
          "type": "uint256"
        }
      ],
      "name": "depositCompplete",
      "type": "event"
    },
    {
      "anonymous": false,
      "inputs": [
        {
          "indexed": false,
          "internalType": "uint256",
          "name": "amount",
          "type": "uint256"
        }
      ],
      "name": "withdrawalComplete",
      "type": "event"
    },
    {
      "inputs": [
        {
          "internalType": "uint256",
          "name": "amount",
          "type": "uint256"
        }
      ],
      "name": "Deposit",
      "outputs": [],
      "stateMutability": "nonpayable",
      "type": "function"
    },
    {
      "inputs": [
        {
          "internalType": "uint256",
          "name": "amount",
          "type": "uint256"
        }
      ],
      "name": "Withdraw",
      "outputs": [],
      "stateMutability": "nonpayable",
      "type": "function"
    },
    {
      "inputs": [],
      "name": "Balance",
      "outputs": [
        {
          "internalType": "uint256",
          "name": "",
          "type": "uint256"
        }
      ],
      "stateMutability": "view",
      "type": "function"
    }
  ],
  "bytecode": "0x60806040525f8055348015610012575f80fd5b50610442806100205f395ff3fe608060405234801561000f575f80fd5b506004361061003f575f3560e01c80630ef67887146100435780634d6ce1e5146100615780635b6b431d1461007d575b5f80fd5b61004b610099565b6040516100589190610227565b60405180910390f35b61007b6004803603810190610076919061026e565b6100a1565b005b6100976004803603810190610092919061026e565b610136565b005b5f8054905090565b805f81116100e4576040517f08c379a00000000000000000000000000000000000000000000000000000000081526004016100db906102f3565b60405180910390fd5b815f808282546100f4919061033e565b925050819055507f9068a3e76116501cb9640db685923d8e9d801d6fa33edcc83e390d8fb4c607a18260405161012a9190610227565b60405180910390a15050565b805f8111610179576040517f08c379a0000000000000000000000000000000000000000000000000000000008152600401610170906102f3565b60405180910390fd5b5f548111156101bd576040517f08c379a00000000000000000000000000000000000000000000000000000000081526004016101b4906103bb565b60405180910390fd5b815f808282546101cd91906103d9565b925050819055507fb688685b43df87beaf52a34adaa8a32f2d022c3e5818ee2aa0bc88f3a35acac5826040516102039190610227565b60405180910390a15050565b5f819050919050565b6102218161020f565b82525050565b5f60208201905061023a5f830184610218565b92915050565b5f80fd5b61024d8161020f565b8114610257575f80fd5b50565b5f8135905061026881610244565b92915050565b5f6020828403121561028357610282610240565b5b5f6102908482850161025a565b91505092915050565b5f82825260208201905092915050565b7f496e76616c696420616d6f756e742e00000000000000000000000000000000005f82015250565b5f6102dd600f83610299565b91506102e8826102a9565b602082019050919050565b5f6020820190508181035f83015261030a816102d1565b9050919050565b7f4e487b71000000000000000000000000000000000000000000000000000000005f52601160045260245ffd5b5f6103488261020f565b91506103538361020f565b925082820190508082111561036b5761036a610311565b5b92915050565b7f496e73756666696369656e742062616c616e63652e00000000000000000000005f82015250565b5f6103a5601583610299565b91506103b082610371565b602082019050919050565b5f6020820190508181035f8301526103d281610399565b9050919050565b5f6103e38261020f565b91506103ee8361020f565b925082820390508181111561040657610405610311565b5b9291505056fea2646970667358221220ca97f1c1aef7c7c064a74b3bb8e34b9252d161d5d6c44ae684057c30c4ea787864736f6c63430008150033",
  "immutableReferences": {},
  "source": "// SPDX-License-Identifier: SEE LICENSE IN LICENSE\npragma solidity >= 0.8.7 <= 0.9;\n//pragma solidity >=0.4.22 <0.9.0; \n\ncontract Money {\n    uint balance = 0;\n\n\n    modifier validateDeposit(uint amount) {\n        require(amount > 0, \"Invalid amount.\");\n        _;\n    }\n\n    modifier validateWithdrawal(uint amount) {\n        require(amount > 0, \"Invalid amount.\");\n        require(amount <= balance, \"Insufficient balance.\");\n        _;\n    }\n\n    event depositCompplete(uint amount);\n    event withdrawalComplete(uint amount);\n\n    function Deposit(uint amount) external validateDeposit(amount) {\n        balance += amount;\n        emit depositCompplete(amount);\n    }\n\n    function Withdraw(uint amount) external validateWithdrawal(amount) {\n        balance -= amount;\n        emit withdrawalComplete(amount);\n    }\n\n    function Balance() view external returns (uint) {\n        return balance;\n    }\n}",
  "sourcePath": "/Users/admin/Projects/blockchain/council/staking_dapp/src/contracts/Money.sol",
  "compiler": {
    "name": "solc",
    "version": "0.8.21+commit.d9974bed.Emscripten.clang"
  },
  "schemaVersion": "3.4.16",
  "updatedAt": "2023-09-13T12:45:03.280Z",
  "devdoc": {
    "kind": "dev",
    "methods": {},
    "version": 1
  },
  "userdoc": {
    "kind": "user",
    "methods": {},
    "version": 1
  }
}