{
  "contractName": "ScoreCard",
  "abi": [
    {
      "inputs": [],
      "stateMutability": "nonpayable",
      "type": "constructor"
    },
    {
      "anonymous": false,
      "inputs": [
        {
          "indexed": false,
          "internalType": "string",
          "name": "_fname",
          "type": "string"
        },
        {
          "indexed": false,
          "internalType": "string",
          "name": "_lname",
          "type": "string"
        },
        {
          "indexed": false,
          "internalType": "uint256",
          "name": "_id",
          "type": "uint256"
        }
      ],
      "name": "studentAdded",
      "type": "event"
    },
    {
      "anonymous": false,
      "inputs": [
        {
          "indexed": false,
          "internalType": "uint256",
          "name": "_id",
          "type": "uint256"
        },
        {
          "indexed": false,
          "internalType": "uint256",
          "name": "_english",
          "type": "uint256"
        },
        {
          "indexed": false,
          "internalType": "uint256",
          "name": "_maths",
          "type": "uint256"
        },
        {
          "indexed": false,
          "internalType": "uint256",
          "name": "_science",
          "type": "uint256"
        }
      ],
      "name": "studentScoresRecorded",
      "type": "event"
    },
    {
      "inputs": [
        {
          "internalType": "string",
          "name": "_fname",
          "type": "string"
        },
        {
          "internalType": "string",
          "name": "_lname",
          "type": "string"
        }
      ],
      "name": "addStudentDetails",
      "outputs": [],
      "stateMutability": "nonpayable",
      "type": "function"
    },
    {
      "inputs": [
        {
          "internalType": "uint256",
          "name": "_id",
          "type": "uint256"
        },
        {
          "internalType": "uint256",
          "name": "_english",
          "type": "uint256"
        },
        {
          "internalType": "uint256",
          "name": "_maths",
          "type": "uint256"
        },
        {
          "internalType": "uint256",
          "name": "_science",
          "type": "uint256"
        }
      ],
      "name": "addStudentScores",
      "outputs": [],
      "stateMutability": "nonpayable",
      "type": "function"
    },
    {
      "inputs": [
        {
          "internalType": "uint256",
          "name": "_id",
          "type": "uint256"
        }
      ],
      "name": "getStudentScores",
      "outputs": [
        {
          "components": [
            {
              "internalType": "uint256",
              "name": "studentId",
              "type": "uint256"
            },
            {
              "internalType": "uint256",
              "name": "englishMarks",
              "type": "uint256"
            },
            {
              "internalType": "uint256",
              "name": "mathsMarks",
              "type": "uint256"
            },
            {
              "internalType": "uint256",
              "name": "scienceMarks",
              "type": "uint256"
            }
          ],
          "internalType": "struct ScoreCard.Scores",
          "name": "",
          "type": "tuple"
        }
      ],
      "stateMutability": "view",
      "type": "function"
    },
    {
      "inputs": [
        {
          "internalType": "uint256",
          "name": "_id",
          "type": "uint256"
        }
      ],
      "name": "getStudentDetails",
      "outputs": [
        {
          "components": [
            {
              "internalType": "string",
              "name": "StudentFirstName",
              "type": "string"
            },
            {
              "internalType": "string",
              "name": "StudentLastName",
              "type": "string"
            },
            {
              "internalType": "uint256",
              "name": "Id",
              "type": "uint256"
            }
          ],
          "internalType": "struct ScoreCard.StudentDetails",
          "name": "",
          "type": "tuple"
        }
      ],
      "stateMutability": "view",
      "type": "function"
    }
  ],
  "bytecode": "0x60806040525f8055348015610012575f80fd5b503360015f6101000a81548173ffffffffffffffffffffffffffffffffffffffff021916908373ffffffffffffffffffffffffffffffffffffffff160217905550610f37806100605f395ff3fe608060405234801561000f575f80fd5b506004361061004a575f3560e01c80634c94ebbb1461004e57806386a9b3641461006a578063a24232c51461009a578063a8ed6744146100b6575b5f80fd5b61006860048036038101906100639190610647565b6100e6565b005b610084600480360381019061007f91906106ab565b610244565b60405161009191906107c3565b60405180910390f35b6100b460048036038101906100af919061090f565b6103ef565b005b6100d060048036038101906100cb91906106ab565b610516565b6040516100dd91906109d8565b60405180910390f35b338073ffffffffffffffffffffffffffffffffffffffff1660015f9054906101000a900473ffffffffffffffffffffffffffffffffffffffff1673ffffffffffffffffffffffffffffffffffffffff1614610176576040517f08c379a000000000000000000000000000000000000000000000000000000000815260040161016d90610a71565b60405180910390fd5b845f811015801561018857505f548111155b6101c7576040517f08c379a00000000000000000000000000000000000000000000000000000000081526004016101be90610ad9565b60405180910390fd5b5f60035f8881526020019081526020015f20905086815f01819055508581600101819055508481600201819055508381600301819055507ff37378b436df9c133c295a383bc635d84430a23d7801ffa2dbfd18f9e191156a878787876040516102339493929190610b06565b60405180910390a150505050505050565b61024c6105bf565b815f811015801561025e57505f548111155b61029d576040517f08c379a000000000000000000000000000000000000000000000000000000000815260040161029490610ad9565b60405180910390fd5b5f60025f8581526020019081526020015f206040518060600160405290815f820180546102c990610b76565b80601f01602080910402602001604051908101604052809291908181526020018280546102f590610b76565b80156103405780601f1061031757610100808354040283529160200191610340565b820191905f5260205f20905b81548152906001019060200180831161032357829003601f168201915b5050505050815260200160018201805461035990610b76565b80601f016020809104026020016040519081016040528092919081815260200182805461038590610b76565b80156103d05780601f106103a7576101008083540402835291602001916103d0565b820191905f5260205f20905b8154815290600101906020018083116103b357829003601f168201915b5050505050815260200160028201548152505090508092505050919050565b338073ffffffffffffffffffffffffffffffffffffffff1660015f9054906101000a900473ffffffffffffffffffffffffffffffffffffffff1673ffffffffffffffffffffffffffffffffffffffff161461047f576040517f08c379a000000000000000000000000000000000000000000000000000000000815260040161047690610a71565b60405180910390fd5b5f60025f805481526020019081526020015f20905083815f0190816104a49190610d43565b50828160010190816104b69190610d43565b505f5481600201819055507faee3b08f60bd17d98cf5318d54d8104d3f63cd7878cb5ee81a3ab7d3c8ef1d3d84845f808154809291906104f590610e3f565b9190505560405161050893929190610ebe565b60405180910390a150505050565b61051e6105df565b815f811015801561053057505f548111155b61056f576040517f08c379a000000000000000000000000000000000000000000000000000000000815260040161056690610ad9565b60405180910390fd5b5f60035f8581526020019081526020015f206040518060800160405290815f8201548152602001600182015481526020016002820154815260200160038201548152505090508092505050919050565b604051806060016040528060608152602001606081526020015f81525090565b60405180608001604052805f81526020015f81526020015f81526020015f81525090565b5f604051905090565b5f80fd5b5f80fd5b5f819050919050565b61062681610614565b8114610630575f80fd5b50565b5f813590506106418161061d565b92915050565b5f805f806080858703121561065f5761065e61060c565b5b5f61066c87828801610633565b945050602061067d87828801610633565b935050604061068e87828801610633565b925050606061069f87828801610633565b91505092959194509250565b5f602082840312156106c0576106bf61060c565b5b5f6106cd84828501610633565b91505092915050565b5f81519050919050565b5f82825260208201905092915050565b5f5b8381101561070d5780820151818401526020810190506106f2565b5f8484015250505050565b5f601f19601f8301169050919050565b5f610732826106d6565b61073c81856106e0565b935061074c8185602086016106f0565b61075581610718565b840191505092915050565b61076981610614565b82525050565b5f606083015f8301518482035f8601526107898282610728565b915050602083015184820360208601526107a38282610728565b91505060408301516107b86040860182610760565b508091505092915050565b5f6020820190508181035f8301526107db818461076f565b905092915050565b5f80fd5b5f80fd5b7f4e487b71000000000000000000000000000000000000000000000000000000005f52604160045260245ffd5b61082182610718565b810181811067ffffffffffffffff821117156108405761083f6107eb565b5b80604052505050565b5f610852610603565b905061085e8282610818565b919050565b5f67ffffffffffffffff82111561087d5761087c6107eb565b5b61088682610718565b9050602081019050919050565b828183375f83830152505050565b5f6108b36108ae84610863565b610849565b9050828152602081018484840111156108cf576108ce6107e7565b5b6108da848285610893565b509392505050565b5f82601f8301126108f6576108f56107e3565b5b81356109068482602086016108a1565b91505092915050565b5f80604083850312156109255761092461060c565b5b5f83013567ffffffffffffffff81111561094257610941610610565b5b61094e858286016108e2565b925050602083013567ffffffffffffffff81111561096f5761096e610610565b5b61097b858286016108e2565b9150509250929050565b608082015f8201516109995f850182610760565b5060208201516109ac6020850182610760565b5060408201516109bf6040850182610760565b5060608201516109d26060850182610760565b50505050565b5f6080820190506109eb5f830184610985565b92915050565b5f82825260208201905092915050565b7f4f6e6c792074686520636c6173732074656163686572206861732061636365735f8201527f7320746f20746869732066756e6374696f6e0000000000000000000000000000602082015250565b5f610a5b6032836109f1565b9150610a6682610a01565b604082019050919050565b5f6020820190508181035f830152610a8881610a4f565b9050919050565b7f53747564656e7420697320696e206120646966666572656e7420636c6173732e5f82015250565b5f610ac36020836109f1565b9150610ace82610a8f565b602082019050919050565b5f6020820190508181035f830152610af081610ab7565b9050919050565b610b0081610614565b82525050565b5f608082019050610b195f830187610af7565b610b266020830186610af7565b610b336040830185610af7565b610b406060830184610af7565b95945050505050565b7f4e487b71000000000000000000000000000000000000000000000000000000005f52602260045260245ffd5b5f6002820490506001821680610b8d57607f821691505b602082108103610ba057610b9f610b49565b5b50919050565b5f819050815f5260205f209050919050565b5f6020601f8301049050919050565b5f82821b905092915050565b5f60088302610c027fffffffffffffffffffffffffffffffffffffffffffffffffffffffffffffffff82610bc7565b610c0c8683610bc7565b95508019841693508086168417925050509392505050565b5f819050919050565b5f610c47610c42610c3d84610614565b610c24565b610614565b9050919050565b5f819050919050565b610c6083610c2d565b610c74610c6c82610c4e565b848454610bd3565b825550505050565b5f90565b610c88610c7c565b610c93818484610c57565b505050565b5b81811015610cb657610cab5f82610c80565b600181019050610c99565b5050565b601f821115610cfb57610ccc81610ba6565b610cd584610bb8565b81016020851015610ce4578190505b610cf8610cf085610bb8565b830182610c98565b50505b505050565b5f82821c905092915050565b5f610d1b5f1984600802610d00565b1980831691505092915050565b5f610d338383610d0c565b9150826002028217905092915050565b610d4c826106d6565b67ffffffffffffffff811115610d6557610d646107eb565b5b610d6f8254610b76565b610d7a828285610cba565b5f60209050601f831160018114610dab575f8415610d99578287015190505b610da38582610d28565b865550610e0a565b601f198416610db986610ba6565b5f5b82811015610de057848901518255600182019150602085019450602081019050610dbb565b86831015610dfd5784890151610df9601f891682610d0c565b8355505b6001600288020188555050505b505050505050565b7f4e487b71000000000000000000000000000000000000000000000000000000005f52601160045260245ffd5b5f610e4982610614565b91507fffffffffffffffffffffffffffffffffffffffffffffffffffffffffffffffff8203610e7b57610e7a610e12565b5b600182019050919050565b5f610e90826106d6565b610e9a81856109f1565b9350610eaa8185602086016106f0565b610eb381610718565b840191505092915050565b5f6060820190508181035f830152610ed68186610e86565b90508181036020830152610eea8185610e86565b9050610ef96040830184610af7565b94935050505056fea2646970667358221220f48338eb5bc1b2aee6e89afd2a2c1184d78e54ed01c226dd7081569233d1fa0764736f6c63430008150033",
  "immutableReferences": {},
  "source": "// SPDX-License-Identifier: MIT\npragma solidity >=0.4.22 <0.9.0; \n\ncontract ScoreCard {\n\n    uint256 studentCount = 0;\n    address classTeacher;\n    mapping (uint => StudentDetails) students;\n    mapping (uint => Scores) scores;\n    constructor() {\n        classTeacher = msg.sender;\n    }\n\n    struct StudentDetails {\n        string StudentFirstName;\n        string StudentLastName;\n        uint256 Id;\n    }\n    struct Scores {\n        uint256 studentId;\n        uint256 englishMarks;\n        uint256 mathsMarks;\n        uint256 scienceMarks;\n    }\n    function addStudentDetails (string memory _fname, string memory _lname) public onlyClassTeacher(msg.sender) {\n        StudentDetails storage studentObj = students[studentCount];\n        studentObj.StudentFirstName = _fname;\n        studentObj.StudentLastName = _lname;\n        studentObj.Id = studentCount;\n        emit studentAdded(_fname, _lname, studentCount++);\n    }\n    function addStudentScores(uint256 _id, uint256 _english, uint256 _maths, uint256 _science) public onlyClassTeacher(msg.sender) studentNotFound(_id) {\n        Scores storage score = scores[_id];\n        score.studentId = _id;\n        score.englishMarks = _english;\n        score.mathsMarks = _maths;\n        score.scienceMarks = _science;\n        emit studentScoresRecorded(_id, _english, _maths, _science);\n    }\n    function getStudentScores(uint256 _id) external view studentNotFound(_id) returns (Scores memory) {\n        Scores memory studentScore = scores[_id];\n        return studentScore;\n    }\n    function getStudentDetails(uint256 _id) external view studentNotFound(_id) returns (StudentDetails memory) {\n        StudentDetails memory details = students[_id];\n        return details;\n    }\n    modifier onlyClassTeacher(address _teacher) {\n        require(classTeacher == _teacher, \"Only the class teacher has access to this function\");\n        _;\n    }\n    modifier studentNotFound(uint256 _studentId){\n        require(_studentId >= 0 && _studentId <= studentCount, \"Student is in a different class.\");\n        _;\n    }\n    event studentAdded(string _fname, string _lname, uint256 _id);\n    event studentScoresRecorded(uint256 _id, uint256 _english, uint256 _maths, uint256 _science);\n\n    /** \n        modifier invalidScores(uint _studentId) {\n            //require(scores[_studentId].englishMarks, \"\");\n            //require(true, \"Invalid score sheet submitted.\");\n            _;\n        }\n    */\n}",
  "sourcePath": "/Users/admin/Projects/blockchain/council/staking_dapp/src/contracts/ScoreCard.sol",
  "compiler": {
    "name": "solc",
    "version": "0.8.21+commit.d9974bed.Emscripten.clang"
  },
  "schemaVersion": "3.4.16",
  "updatedAt": "2023-09-13T12:45:03.281Z",
  "devdoc": {
    "kind": "dev",
    "methods": {},
    "version": 1
  },
  "userdoc": {
    "kind": "user",
    "methods": {},
    "version": 1
  }
}