{
  "contractName": "ScoreCard",
  "abi": [
    {
      "inputs": [],
      "stateMutability": "nonpayable",
      "type": "constructor"
    },
    {
      "anonymous": false,
      "inputs": [
        {
          "indexed": false,
          "internalType": "string",
          "name": "_fname",
          "type": "string"
        },
        {
          "indexed": false,
          "internalType": "string",
          "name": "_lname",
          "type": "string"
        },
        {
          "indexed": false,
          "internalType": "uint256",
          "name": "_id",
          "type": "uint256"
        }
      ],
      "name": "studentAdded",
      "type": "event"
    },
    {
      "anonymous": false,
      "inputs": [
        {
          "indexed": false,
          "internalType": "uint256",
          "name": "_id",
          "type": "uint256"
        },
        {
          "indexed": false,
          "internalType": "uint256",
          "name": "_english",
          "type": "uint256"
        },
        {
          "indexed": false,
          "internalType": "uint256",
          "name": "_maths",
          "type": "uint256"
        },
        {
          "indexed": false,
          "internalType": "uint256",
          "name": "_science",
          "type": "uint256"
        }
      ],
      "name": "studentScoresRecorded",
      "type": "event"
    },
    {
      "inputs": [
        {
          "internalType": "string",
          "name": "_fname",
          "type": "string"
        },
        {
          "internalType": "string",
          "name": "_lname",
          "type": "string"
        }
      ],
      "name": "addStudentDetails",
      "outputs": [],
      "stateMutability": "nonpayable",
      "type": "function"
    },
    {
      "inputs": [
        {
          "internalType": "uint256",
          "name": "_id",
          "type": "uint256"
        },
        {
          "internalType": "uint256",
          "name": "_english",
          "type": "uint256"
        },
        {
          "internalType": "uint256",
          "name": "_maths",
          "type": "uint256"
        },
        {
          "internalType": "uint256",
          "name": "_science",
          "type": "uint256"
        }
      ],
      "name": "addStudentScores",
      "outputs": [],
      "stateMutability": "nonpayable",
      "type": "function"
    },
    {
      "inputs": [
        {
          "internalType": "uint256",
          "name": "_id",
          "type": "uint256"
        }
      ],
      "name": "getStudentScores",
      "outputs": [
        {
          "components": [
            {
              "internalType": "uint256",
              "name": "studentId",
              "type": "uint256"
            },
            {
              "internalType": "uint256",
              "name": "englishMarks",
              "type": "uint256"
            },
            {
              "internalType": "uint256",
              "name": "mathsMarks",
              "type": "uint256"
            },
            {
              "internalType": "uint256",
              "name": "scienceMarks",
              "type": "uint256"
            }
          ],
          "internalType": "struct ScoreCard.Scores",
          "name": "",
          "type": "tuple"
        }
      ],
      "stateMutability": "view",
      "type": "function"
    },
    {
      "inputs": [
        {
          "internalType": "uint256",
          "name": "_id",
          "type": "uint256"
        }
      ],
      "name": "getStudentDetails",
      "outputs": [
        {
          "components": [
            {
              "internalType": "string",
              "name": "StudentFirstName",
              "type": "string"
            },
            {
              "internalType": "string",
              "name": "StudentLastName",
              "type": "string"
            },
            {
              "internalType": "uint256",
              "name": "Id",
              "type": "uint256"
            }
          ],
          "internalType": "struct ScoreCard.StudentDetails",
          "name": "",
          "type": "tuple"
        }
      ],
      "stateMutability": "view",
      "type": "function"
    }
  ],
  "bytecode": "0x60806040526000805534801561001457600080fd5b5060018054600160a060020a03191633179055610979806100366000396000f3fe608060405234801561001057600080fd5b5060043610610068577c010000000000000000000000000000000000000000000000000000000060003504634c94ebbb811461006d57806386a9b36414610082578063a24232c5146100ab578063a8ed6744146100be575b600080fd5b61008061007b3660046104d8565b610104565b005b61009561009036600461050a565b6101e7565b6040516100a29190610569565b60405180910390f35b6100806100b9366004610675565b610382565b6100d16100cc36600461050a565b610444565b6040516100a291908151815260208083015190820152604080830151908201526060918201519181019190915260800190565b600154339073ffffffffffffffffffffffffffffffffffffffff1681146101495760405160e560020a62461bcd028152600401610140906106d9565b60405180910390fd5b8460005481111561016f5760405160e560020a62461bcd02815260040161014090610736565b6000868152600360208181526040928390208981556001810189905560028101889055918201869055825189815290810188905291820186905260608201859052907ff37378b436df9c133c295a383bc635d84430a23d7801ffa2dbfd18f9e191156a9060800160405180910390a150505050505050565b61020b60405180606001604052806060815260200160608152602001600081525090565b816000548111156102315760405160e560020a62461bcd02815260040161014090610736565b6000838152600260205260408082208151606081019092528054829082906102589061076b565b80601f01602080910402602001604051908101604052809291908181526020018280546102849061076b565b80156102d15780601f106102a6576101008083540402835291602001916102d1565b820191906000526020600020905b8154815290600101906020018083116102b457829003601f168201915b505050505081526020016001820180546102ea9061076b565b80601f01602080910402602001604051908101604052809291908181526020018280546103169061076b565b80156103635780601f1061033857610100808354040283529160200191610363565b820191906000526020600020905b81548152906001019060200180831161034657829003601f168201915b5050509183525050600291909101546020909101529250505b50919050565b600154339073ffffffffffffffffffffffffffffffffffffffff1681146103be5760405160e560020a62461bcd028152600401610140906106d9565b600080548152600260205260409020806103d88582610807565b50600181016103e78482610807565b5060008054600283018190557faee3b08f60bd17d98cf5318d54d8104d3f63cd7878cb5ee81a3ab7d3c8ef1d3d918691869180610423836108cd565b919050556040516104369392919061090d565b60405180910390a150505050565b61046f6040518060800160405280600081526020016000815260200160008152602001600081525090565b816000548111156104955760405160e560020a62461bcd02815260040161014090610736565b5050600090815260036020818152604092839020835160808101855281548152600182015492810192909252600281015493820193909352910154606082015290565b600080600080608085870312156104ee57600080fd5b5050823594602084013594506040840135936060013592509050565b60006020828403121561051c57600080fd5b5035919050565b6000815180845260005b818110156105495760208185018101518683018201520161052d565b506000602082860101526020601f19601f83011685010191505092915050565b6020815260008251606060208401526105856080840182610523565b90506020840151601f198483030160408501526105a28282610523565b915050604084015160608401528091505092915050565b7f4e487b7100000000000000000000000000000000000000000000000000000000600052604160045260246000fd5b600082601f8301126105f957600080fd5b813567ffffffffffffffff80821115610614576106146105b9565b604051601f8301601f19908116603f0116810190828211818310171561063c5761063c6105b9565b8160405283815286602085880101111561065557600080fd5b836020870160208301376000602085830101528094505050505092915050565b6000806040838503121561068857600080fd5b823567ffffffffffffffff808211156106a057600080fd5b6106ac868387016105e8565b935060208501359150808211156106c257600080fd5b506106cf858286016105e8565b9150509250929050565b60208082526032908201527f4f6e6c792074686520636c61737320746561636865722068617320616363657360408201527f7320746f20746869732066756e6374696f6e0000000000000000000000000000606082015260800190565b6020808252818101527f53747564656e7420697320696e206120646966666572656e7420636c6173732e604082015260600190565b60028104600182168061077f57607f821691505b60208210810361037c577f4e487b7100000000000000000000000000000000000000000000000000000000600052602260045260246000fd5b601f821115610802576000818152602081206020601f860104810160208610156107df5750805b6020601f860104820191505b818110156107fe578281556001016107eb565b5050505b505050565b815167ffffffffffffffff811115610821576108216105b9565b6108358161082f845461076b565b846107b8565b602080601f83116001811461086e57600084156108525750858301515b60028086026008870290910a60001904198216178655506107fe565b600085815260208120601f198616915b8281101561089d5788860151825594840194600190910190840161087e565b50858210156108bd57878501516008601f88160260020a60001904191681555b5050505050600202600101905550565b600060018201610906577f4e487b7100000000000000000000000000000000000000000000000000000000600052601160045260246000fd5b5060010190565b6060815260006109206060830186610523565b82810360208401526109328186610523565b91505082604083015294935050505056fea26469706673582212206d5f6b33564e80ac293be416af576d1ff7ba8b0f9a8360c1322feeea850a86b964736f6c63430008150033",
  "immutableReferences": {},
  "source": "// SPDX-License-Identifier: MIT\npragma solidity >=0.4.22 <0.9.0; \n\ncontract ScoreCard {\n\n    uint256 studentCount = 0;\n    address classTeacher;\n    mapping (uint256 => StudentDetails) students;\n    mapping (uint256 => Scores) scores;\n    constructor() {\n        classTeacher = msg.sender;\n    }\n\n    struct StudentDetails {\n        string StudentFirstName;\n        string StudentLastName;\n        uint256 Id;\n    }\n    struct Scores {\n        uint256 studentId;\n        uint256 englishMarks;\n        uint256 mathsMarks;\n        uint256 scienceMarks;\n    }\n    function addStudentDetails (string memory _fname, string memory _lname) public onlyClassTeacher(msg.sender) {\n        StudentDetails storage studentObj = students[studentCount];\n        studentObj.StudentFirstName = _fname;\n        studentObj.StudentLastName = _lname;\n        studentObj.Id = studentCount;\n        emit studentAdded(_fname, _lname, studentCount++);\n    }\n    function addStudentScores(uint256 _id, uint256 _english, uint256 _maths, uint256 _science) public onlyClassTeacher(msg.sender) studentNotFound(_id) {\n        Scores storage score = scores[_id];\n        score.studentId = _id;\n        score.englishMarks = _english;\n        score.mathsMarks = _maths;\n        score.scienceMarks = _science;\n        emit studentScoresRecorded(_id, _english, _maths, _science);\n    }\n    function getStudentScores(uint256 _id) external view studentNotFound(_id) returns (Scores memory) {\n        Scores memory studentScore = scores[_id];\n        return studentScore;\n    }\n    function getStudentDetails(uint256 _id) external view studentNotFound(_id) returns (StudentDetails memory) {\n        StudentDetails memory details = students[_id];\n        return details;\n    }\n    modifier onlyClassTeacher(address _teacher) {\n        require(classTeacher == _teacher, \"Only the class teacher has access to this function\");\n        _;\n    }\n    modifier studentNotFound(uint256 _studentId){\n        require(_studentId >= 0 && _studentId <= studentCount, \"Student is in a different class.\");\n        _;\n    }\n    event studentAdded(string _fname, string _lname, uint256 _id);\n    event studentScoresRecorded(uint256 _id, uint256 _english, uint256 _maths, uint256 _science);\n\n    /** \n        modifier invalidScores(uint256 _studentId) {\n            //require(scores[_studentId].englishMarks, \"\");\n            //require(true, \"Invalid score sheet submitted.\");\n            _;\n        }\n    */\n}",
  "sourcePath": "/Users/admin/Projects/blockchain/council/staking_dapp/src/contracts/ScoreCard.sol",
  "compiler": {
    "name": "solc",
    "version": "0.8.21+commit.d9974bed.Emscripten.clang"
  },
  "schemaVersion": "3.4.16",
  "updatedAt": "2023-09-15T10:57:05.751Z",
  "devdoc": {
    "kind": "dev",
    "methods": {},
    "version": 1
  },
  "userdoc": {
    "kind": "user",
    "methods": {},
    "version": 1
  }
}