{
  "contractName": "StakingDapp",
  "abi": [
    {
      "inputs": [
        {
          "internalType": "contract IncentiveToken",
          "name": "reward_token",
          "type": "address"
        },
        {
          "internalType": "contract Tether",
          "name": "fake_usd",
          "type": "address"
        }
      ],
      "stateMutability": "nonpayable",
      "type": "constructor"
    },
    {
      "anonymous": false,
      "inputs": [
        {
          "indexed": false,
          "internalType": "address",
          "name": "_staker",
          "type": "address"
        },
        {
          "indexed": false,
          "internalType": "uint256",
          "name": "_amount",
          "type": "uint256"
        }
      ],
      "name": "Staketokens",
      "type": "event"
    },
    {
      "anonymous": false,
      "inputs": [
        {
          "indexed": false,
          "internalType": "uint256",
          "name": "_amount",
          "type": "uint256"
        }
      ],
      "name": "UnstakeTokens",
      "type": "event"
    },
    {
      "anonymous": false,
      "inputs": [
        {
          "indexed": false,
          "internalType": "address",
          "name": "_staker",
          "type": "address"
        },
        {
          "indexed": false,
          "internalType": "uint256",
          "name": "_amount",
          "type": "uint256"
        }
      ],
      "name": "UnstakeTokens",
      "type": "event"
    },
    {
      "inputs": [],
      "name": "$inc",
      "outputs": [
        {
          "internalType": "contract IncentiveToken",
          "name": "",
          "type": "address"
        }
      ],
      "stateMutability": "view",
      "type": "function"
    },
    {
      "inputs": [],
      "name": "$usdf",
      "outputs": [
        {
          "internalType": "contract Tether",
          "name": "",
          "type": "address"
        }
      ],
      "stateMutability": "view",
      "type": "function"
    },
    {
      "inputs": [
        {
          "internalType": "address",
          "name": "",
          "type": "address"
        }
      ],
      "name": "has_staked",
      "outputs": [
        {
          "internalType": "bool",
          "name": "",
          "type": "bool"
        }
      ],
      "stateMutability": "view",
      "type": "function"
    },
    {
      "inputs": [
        {
          "internalType": "address",
          "name": "",
          "type": "address"
        }
      ],
      "name": "is_staking",
      "outputs": [
        {
          "internalType": "bool",
          "name": "",
          "type": "bool"
        }
      ],
      "stateMutability": "view",
      "type": "function"
    },
    {
      "inputs": [],
      "name": "name",
      "outputs": [
        {
          "internalType": "string",
          "name": "",
          "type": "string"
        }
      ],
      "stateMutability": "view",
      "type": "function"
    },
    {
      "inputs": [],
      "name": "owner",
      "outputs": [
        {
          "internalType": "address",
          "name": "",
          "type": "address"
        }
      ],
      "stateMutability": "view",
      "type": "function"
    },
    {
      "inputs": [
        {
          "internalType": "uint256",
          "name": "",
          "type": "uint256"
        }
      ],
      "name": "stakers",
      "outputs": [
        {
          "internalType": "address",
          "name": "",
          "type": "address"
        }
      ],
      "stateMutability": "view",
      "type": "function"
    },
    {
      "inputs": [
        {
          "internalType": "address",
          "name": "",
          "type": "address"
        }
      ],
      "name": "staking_balance",
      "outputs": [
        {
          "internalType": "uint256",
          "name": "",
          "type": "uint256"
        }
      ],
      "stateMutability": "view",
      "type": "function"
    },
    {
      "inputs": [
        {
          "internalType": "uint256",
          "name": "_amount",
          "type": "uint256"
        }
      ],
      "name": "stakeTokens",
      "outputs": [],
      "stateMutability": "nonpayable",
      "type": "function"
    },
    {
      "inputs": [
        {
          "internalType": "uint256",
          "name": "_amount",
          "type": "uint256"
        }
      ],
      "name": "unstakeTokens",
      "outputs": [],
      "stateMutability": "nonpayable",
      "type": "function"
    },
    {
      "inputs": [],
      "name": "SendRewards",
      "outputs": [],
      "stateMutability": "nonpayable",
      "type": "function"
    }
  ],
  "bytecode": "0x60c0604052600c60809081527f5374616b696e672064417070000000000000000000000000000000000000000060a0526000906200003e908262000188565b503480156200004c57600080fd5b5060405162000cad38038062000cad8339810160408190526200006f9162000274565b60028054600160a060020a03938416600160a060020a0319918216179091556003805492909316918116919091179091556001805490911633179055620002b3565b7f4e487b7100000000000000000000000000000000000000000000000000000000600052604160045260246000fd5b600281046001821680620000f557607f821691505b6020821081036200012f577f4e487b7100000000000000000000000000000000000000000000000000000000600052602260045260246000fd5b50919050565b601f82111562000183576000818152602081206020601f860104810160208610156200015e5750805b6020601f860104820191505b818110156200017f578281556001016200016a565b5050505b505050565b815167ffffffffffffffff811115620001a557620001a5620000b1565b620001bd81620001b68454620000e0565b8462000135565b602080601f831160018114620001f95760008415620001dc5750858301515b60028086026008870290910a60001904198216178655506200017f565b600085815260208120601f198616915b828110156200022a5788860151825594840194600190910190840162000209565b50858210156200024b57878501516008601f88160260020a60001904191681555b5050505050600202600101905550565b600160a060020a03811681146200027157600080fd5b50565b600080604083850312156200028857600080fd5b825162000295816200025b565b6020840151909250620002a8816200025b565b809150509250929050565b6109ea80620002c36000396000f3fe608060405234801561001057600080fd5b50600436106100c6576000357c0100000000000000000000000000000000000000000000000000000000900480638da5cb5b1161008e5780638da5cb5b1461016a57806397b3ad501461017d578063c0856dd4146101b0578063c8d12d39146101d3578063fbadd5d2146101db578063fd5e6dd1146101ee57600080fd5b806306fdde03146100cb57806357ce2caf146100e9578063608e4dd0146101175780637547c7a31461012c5780638206e4411461013f575b600080fd5b6100d3610201565b6040516100e09190610805565b60405180910390f35b6101096100f7366004610853565b60056020526000908152604090205481565b6040519081526020016100e0565b61012a610125366004610883565b61028f565b005b61012a61013a366004610883565b61041f565b60025461015290600160a060020a031681565b604051600160a060020a0390911681526020016100e0565b60015461015290600160a060020a031681565b6101a061018b366004610853565b60066020526000908152604090205460ff1681565b60405190151581526020016100e0565b6101a06101be366004610853565b60076020526000908152604090205460ff1681565b61012a6105de565b60035461015290600160a060020a031681565b6101526101fc366004610883565b6107db565b6000805461020e9061089c565b80601f016020809104026020016040519081016040528092919081815260200182805461023a9061089c565b80156102875780601f1061025c57610100808354040283529160200191610287565b820191906000526020600020905b81548152906001019060200180831161026a57829003601f168201915b505050505081565b3360009081526007602052604090205460ff1661030d576040517f08c379a000000000000000000000000000000000000000000000000000000000815260206004820152601860248201527f5374616b696e672062616c616e6365206973207a65726f2e000000000000000060448201526064015b60405180910390fd5b33600081815260056020526040908190205460035491517fa9059cbb00000000000000000000000000000000000000000000000000000000815260048101939093526024830181905291600160a060020a039091169063a9059cbb906044016020604051808303816000875af115801561038b573d6000803e3d6000fd5b505050506040513d601f19601f820116820180604052508101906103af91906108ef565b50818110156103d55750336000908152600760205260408120805460ff191690556103e2565b6103df8282610940565b90505b60408051338152602081018490527ff74a79d13d6fdbdf26b2c779e6a24490a43e65d60cc7e064740f8d40b2b5ea2c910160405180910390a15050565b60008111610489576040517f08c379a000000000000000000000000000000000000000000000000000000000815260206004820152601360248201527f4e6f20746f6b656e732070726f76696465642e000000000000000000000000006044820152606401610304565b6003546040517f23b872dd00000000000000000000000000000000000000000000000000000000815233600482015230602482015260448101839052600160a060020a03909116906323b872dd906064016020604051808303816000875af11580156104f9573d6000803e3d6000fd5b505050506040513d601f19601f8201168201806040525081019061051d91906108ef565b50336000908152600560205260408120805483929061053d908490610959565b90915550503360009081526006602052604090205460ff166105a957600480546001810182556000919091527f8a35acfbc15ff81a39ae7d344fd709f28e8600b4aa8c65c6b64bfe7fe36bd19b01805473ffffffffffffffffffffffffffffffffffffffff1916331790555b503360009081526007602090815260408083208054600160ff1991821681179092556006909352922080549091169091179055565b600154600160a060020a03163314610678576040517f08c379a000000000000000000000000000000000000000000000000000000000815260206004820152602a60248201527f43616c6c6572206d75737420626520746865206f776e6572206f66207468697360448201527f2066756e6374696f6e2e000000000000000000000000000000000000000000006064820152608401610304565b60005b6004548110156107d857600760006004838154811061069c5761069c61096c565b6000918252602080832090910154600160a060020a0316835282019290925260400190205460ff16156107c657600060056000600484815481106106e2576106e261096c565b6000918252602080832090910154600160a060020a0390811684529083019390935260409091019020546002546004805492945092169163a9059cbb918590811061072f5761072f61096c565b60009182526020909120015460405163ffffffff83167c0100000000000000000000000000000000000000000000000000000000028152600160a060020a039091166004820152602481018490526044016020604051808303816000875af115801561079f573d6000803e3d6000fd5b505050506040513d601f19601f820116820180604052508101906107c391906108ef565b50505b806107d08161099b565b91505061067b565b50565b600481815481106107eb57600080fd5b600091825260209091200154600160a060020a0316905081565b600060208083528351808285015260005b8181101561083257858101830151858201604001528201610816565b506000604082860101526040601f19601f8301168501019250505092915050565b60006020828403121561086557600080fd5b8135600160a060020a038116811461087c57600080fd5b9392505050565b60006020828403121561089557600080fd5b5035919050565b6002810460018216806108b057607f821691505b6020821081036108e9577f4e487b7100000000000000000000000000000000000000000000000000000000600052602260045260246000fd5b50919050565b60006020828403121561090157600080fd5b8151801515811461087c57600080fd5b7f4e487b7100000000000000000000000000000000000000000000000000000000600052601160045260246000fd5b8181038181111561095357610953610911565b92915050565b8082018082111561095357610953610911565b7f4e487b7100000000000000000000000000000000000000000000000000000000600052603260045260246000fd5b6000600182016109ad576109ad610911565b506001019056fea2646970667358221220845af44cb2622f9d53a5b065e12b39744a2e7715dc52c0be4f2ae8d049d8aee764736f6c63430008150033",
  "immutableReferences": {},
  "source": "// SPDX-License-Identifier: SEE LICENSE IN LICENSE\npragma solidity >=0.4.22 <0.9.0;\nimport \"./IncentiveToken.sol\";\nimport \"./Tether.sol\";\n\ncontract StakingDapp{\n    string public name = \"Staking dApp\";\n    address public owner;\n    IncentiveToken public $inc;\n    Tether public $usdf;\n\n    address[] public stakers;\n    mapping(address => uint256) public staking_balance;\n    mapping(address => bool) public has_staked;\n    mapping(address => bool) public is_staking;\n\n    event UnstakeTokens(uint256 _amount);\n    event Staketokens(address _staker, uint256 _amount);\n    event UnstakeTokens(address _staker, uint256 _amount);\n\n    constructor(IncentiveToken reward_token, Tether fake_usd) {\n        $inc = reward_token;\n        $usdf = fake_usd;\n        owner = msg.sender;\n    }\n\n    function stakeTokens(uint256 _amount) public {\n        require(_amount > 0, \"No tokens provided.\");\n        $usdf.transferFrom(msg.sender, address(this), _amount);\n\n        staking_balance[msg.sender] += _amount;\n\n        if(!has_staked[msg.sender]){\n            stakers.push(msg.sender);\n        }\n\n        is_staking[msg.sender] = true;\n        has_staked[msg.sender] = true;\n    }\n\n    function unstakeTokens(uint256 _amount) public {\n        require(is_staking[msg.sender], \"Staking balance is zero.\");\n        uint256 balance = staking_balance[msg.sender];\n        $usdf.transfer(msg.sender, balance);\n        if(balance < _amount){\n            balance = 0;\n            is_staking[msg.sender] = false;\n        } else balance -= _amount;\n        emit UnstakeTokens(msg.sender, _amount);        \n    }\n\n    function SendRewards() public {\n        require(msg.sender == owner, \"Caller must be the owner of this function.\");\n\n        for(uint256 i = 0; i < stakers.length; i++) {\n            if(is_staking[stakers[i]]){\n                uint256 balance = staking_balance[stakers[i]];\n                $inc.transfer(stakers[i], balance);\n            }\n        }\n    }\n}",
  "sourcePath": "/Users/admin/Projects/blockchain/council/staking_dapp/src/contracts/StakingDapp.sol",
  "compiler": {
    "name": "solc",
    "version": "0.8.21+commit.d9974bed.Emscripten.clang"
  },
  "schemaVersion": "3.4.16",
  "updatedAt": "2023-09-15T10:57:05.753Z",
  "devdoc": {
    "kind": "dev",
    "methods": {},
    "version": 1
  },
  "userdoc": {
    "kind": "user",
    "methods": {},
    "version": 1
  }
}